{
  "contractName": "election",
  "abi": [
    {
      "inputs": [],
      "stateMutability": "nonpayable",
      "type": "constructor"
    },
    {
      "anonymous": false,
      "inputs": [
        {
          "indexed": false,
          "internalType": "uint256",
          "name": "id",
          "type": "uint256"
        }
      ],
      "name": "electionupdated",
      "type": "event"
    },
    {
      "inputs": [],
      "name": "candidate_count",
      "outputs": [
        {
          "internalType": "uint256",
          "name": "",
          "type": "uint256"
        }
      ],
      "stateMutability": "view",
      "type": "function"
    },
    {
      "inputs": [
        {
          "internalType": "uint256",
          "name": "",
          "type": "uint256"
        }
      ],
      "name": "candidates",
      "outputs": [
        {
          "internalType": "uint256",
          "name": "id",
          "type": "uint256"
        },
        {
          "internalType": "string",
          "name": "name",
          "type": "string"
        },
        {
          "internalType": "uint256",
          "name": "votecount",
          "type": "uint256"
        }
      ],
      "stateMutability": "view",
      "type": "function"
    },
    {
      "inputs": [
        {
          "internalType": "uint256",
          "name": "id",
          "type": "uint256"
        }
      ],
      "name": "vote",
      "outputs": [],
      "stateMutability": "nonpayable",
      "type": "function"
    }
  ],
  "bytecode": "0x608060405234801561001057600080fd5b506100556040518060400160405280600781526020017f2062617261636b0000000000000000000000000000000000000000000000000081525061009e60201b60201c565b6100996040518060400160405280600c81526020017f646f6e616c64207472756d70000000000000000000000000000000000000000081525061009e60201b60201c565b6102a4565b6000808154809291906100b0906101fd565b9190505550604051806060016040528060005481526020018281526020016000815250600160008054815260200190815260200160002060008201518160000155602082015181600101908051906020019061010d92919061011e565b506040820151816002015590505050565b82805461012a906101cb565b90600052602060002090601f01602090048101928261014c5760008555610193565b82601f1061016557805160ff1916838001178555610193565b82800160010185558215610193579182015b82811115610192578251825591602001919060010190610177565b5b5090506101a091906101a4565b5090565b5b808211156101bd5760008160009055506001016101a5565b5090565b6000819050919050565b600060028204905060018216806101e357607f821691505b602082108114156101f7576101f6610275565b5b50919050565b6000610208826101c1565b91507fffffffffffffffffffffffffffffffffffffffffffffffffffffffffffffffff82141561023b5761023a610246565b5b600182019050919050565b7f4e487b7100000000000000000000000000000000000000000000000000000000600052601160045260246000fd5b7f4e487b7100000000000000000000000000000000000000000000000000000000600052602260045260246000fd5b610681806102b36000396000f3fe608060405234801561001057600080fd5b50600436106100415760003560e01c80630121b93f146100465780633477ee2e146100625780634b1c4c2914610094575b600080fd5b610060600480360381019061005b919061031c565b6100b2565b005b61007c6004803603810190610077919061031c565b61024f565b60405161008b9392919061042e565b60405180910390f35b61009c610301565b6040516100a99190610413565b60405180910390f35b600260003373ffffffffffffffffffffffffffffffffffffffff1673ffffffffffffffffffffffffffffffffffffffff16815260200190815260200160002060009054906101000a900460ff161561013f576040517f08c379a0000000000000000000000000000000000000000000000000000000008152600401610136906103d3565b60405180910390fd5b60008111801561015157506000548111155b610190576040517f08c379a0000000000000000000000000000000000000000000000000000000008152600401610187906103f3565b60405180910390fd5b600180600083815260200190815260200160002060020160008282546101b69190610488565b925050819055506001600260003373ffffffffffffffffffffffffffffffffffffffff1673ffffffffffffffffffffffffffffffffffffffff16815260200190815260200160002060006101000a81548160ff0219169083151502179055507f43eb94a2a55a3f150f36afb68ebae60908f28e71841e5aa023a47f37b48b6a61816040516102449190610413565b60405180910390a150565b60016020528060005260406000206000915090508060000154908060010180546102789061051b565b80601f01602080910402602001604051908101604052809291908181526020018280546102a49061051b565b80156102f15780601f106102c6576101008083540402835291602001916102f1565b820191906000526020600020905b8154815290600101906020018083116102d457829003601f168201915b5050505050908060020154905083565b60005481565b60008135905061031681610634565b92915050565b60006020828403121561032e57600080fd5b600061033c84828501610307565b91505092915050565b60006103508261046c565b61035a8185610477565b935061036a8185602086016104e8565b610373816105ab565b840191505092915050565b600061038b602283610477565b9150610396826105bc565b604082019050919050565b60006103ae601383610477565b91506103b98261060b565b602082019050919050565b6103cd816104de565b82525050565b600060208201905081810360008301526103ec8161037e565b9050919050565b6000602082019050818103600083015261040c816103a1565b9050919050565b600060208201905061042860008301846103c4565b92915050565b600060608201905061044360008301866103c4565b81810360208301526104558185610345565b905061046460408301846103c4565b949350505050565b600081519050919050565b600082825260208201905092915050565b6000610493826104de565b915061049e836104de565b9250827fffffffffffffffffffffffffffffffffffffffffffffffffffffffffffffffff038211156104d3576104d261054d565b5b828201905092915050565b6000819050919050565b60005b838110156105065780820151818401526020810190506104eb565b83811115610515576000848401525b50505050565b6000600282049050600182168061053357607f821691505b602082108114156105475761054661057c565b5b50919050565b7f4e487b7100000000000000000000000000000000000000000000000000000000600052601160045260246000fd5b7f4e487b7100000000000000000000000000000000000000000000000000000000600052602260045260246000fd5b6000601f19601f8301169050919050565b7f796f75206861766520766f74656420666f72207468722070617274696369706160008201527f6e74000000000000000000000000000000000000000000000000000000000000602082015250565b7f74686520696420646f65736e7420657869737400000000000000000000000000600082015250565b61063d816104de565b811461064857600080fd5b5056fea264697066735822122029cd49473328d74b8ae8d489de981225aeee73d81507dfa8e93066adcb06fac464736f6c63430008020033",
  "immutableReferences": {},
  "source": "//SPDX-License-Identifier: MIT\npragma solidity >=0.7.0 <0.9.0;\n\n\ncontract election{\n    \n    \n    struct candidate{\n        uint id;\n        string name;\n        uint votecount;\n    }\n    uint public candidate_count;\n    mapping(uint=>candidate)public candidates;\n    mapping(address=>bool)voterdonot;\n    event electionupdated(\n         uint id\n    \n        );\n\n\nconstructor()\n{\n    addcandidate(\" barack\");\n    addcandidate(\"donald trump\");\n}\n\n\n\n\n\n\nfunction addcandidate(string memory name ) private {\n    candidate_count++;\n    candidates[candidate_count]=candidate(candidate_count,name,0);}\n   \n    function vote(uint id) public{\n        require(!voterdonot[msg.sender],'you have voted for thr participant');\n        require(id>0&&id<=candidate_count,'the id doesnt exist');\n        candidates[id].votecount+=1;\n        voterdonot[msg.sender]=true;\n        emit electionupdated(id);\n    }\n}\n\n\n\n",
  "sourcePath": "/home/sajal/Desktop/election/contracts/election.sol",
  "compiler": {
    "name": "solc",
    "version": "0.8.2+commit.661d1103.Emscripten.clang"
  },
  "schemaVersion": "3.3.4",
  "updatedAt": "2021-04-08T16:01:25.020Z",
  "devdoc": {
    "kind": "dev",
    "methods": {},
    "version": 1
  },
  "userdoc": {
    "kind": "user",
    "methods": {},
    "version": 1
  }
}